:101E000011248FE594E09EBF8DBF84B714BE81FF7F
:101E1000E3D085E08EBD82E08BB988E18AB986E89F
:101E200080BD80E189B98EE0C4D0BD9A26E080E310
:101E30009CEF54E040E29DBD8CBD58BF08B602FE49
:101E4000FDCF38B3342738BBA8952150A1F7812C9A
:101E5000912CDD24D39495E0C92E21E1B22E33E0FC
:101E6000F32EA0D0813489F49DD08983A6D08981B6
:101E7000823819F484E092D08EC0813819F484E05D
:101E80008DD089C083E08AD086C0823419F484E181
:101E90009CD081C0853419F485E097D07CC085350D
:101EA00049F480D0882E7ED0912C982A880C991CD9
:101EB00084D071C0863529F484E087D080E06ED06C
:101EC0006AC0843609F03DC06DD06CD0E82E6AD06F
:101ED000811488E1980630F4F401F7BEE89500E03B
:101EE00011E002C000E011E05DD0F80181938F01A4
:101EF000EE12FACF8114F8E19F0618F0F401F7BE54
:101F0000E8955BD007B600FCFDCFF401A0E0B1E09E
:101F10008C9111962C91119790E0922B12960C01B6
:101F2000D7BEE89511243296A03481E0B80781F736
:101F3000F401C7BEE89507B600FCFDCFB7BEE89533
:101F40002AC08437B9F42ED02DD0E82E2BD035D02E
:101F5000F401A82CAE0C8F010F5F1F4F84911ED08F
:101F6000F801A012F8CFFFEF8F1A9F0AEA948E0CA7
:101F7000911C11C0853741F420D08EE10FD083E948
:101F80000DD087E00BD007C0813521F488E011D057
:101F900014D001C012D080E101D063CF5D9BFECF91
:101FA0008CB908955F9BFECF5C9901C0A8958CB158
:101FB000089598E191BD81BD0895F4DF803219F054
:101FC00088E0F7DFFFCF84E1E9CFCF93C82FEADFC6
:101FD000C150E9F7CF91F1CF80E0EBDFEE27FF278B
:021FE000099462
:021FFE000404D9
:0400000300001E00DB
:00000001FF
